{
  "contractName": "DappToken",
  "abi": [
    {
      "inputs": [
        {
          "internalType": "uint256",
          "name": "_totalSupply",
          "type": "uint256"
        }
      ],
      "stateMutability": "nonpayable",
      "type": "constructor"
    },
    {
      "anonymous": false,
      "inputs": [
        {
          "indexed": true,
          "internalType": "address",
          "name": "owner",
          "type": "address"
        },
        {
          "indexed": true,
          "internalType": "address",
          "name": "spender",
          "type": "address"
        },
        {
          "indexed": false,
          "internalType": "uint256",
          "name": "value",
          "type": "uint256"
        }
      ],
      "name": "Approval",
      "type": "event"
    },
    {
      "anonymous": false,
      "inputs": [
        {
          "indexed": true,
          "internalType": "address",
          "name": "from",
          "type": "address"
        },
        {
          "indexed": true,
          "internalType": "address",
          "name": "to",
          "type": "address"
        },
        {
          "indexed": false,
          "internalType": "uint256",
          "name": "value",
          "type": "uint256"
        }
      ],
      "name": "Transfer",
      "type": "event"
    },
    {
      "inputs": [],
      "name": "name",
      "outputs": [
        {
          "internalType": "string",
          "name": "",
          "type": "string"
        }
      ],
      "stateMutability": "view",
      "type": "function",
      "constant": true
    },
    {
      "inputs": [],
      "name": "standar",
      "outputs": [
        {
          "internalType": "string",
          "name": "",
          "type": "string"
        }
      ],
      "stateMutability": "view",
      "type": "function",
      "constant": true
    },
    {
      "inputs": [],
      "name": "symbol",
      "outputs": [
        {
          "internalType": "string",
          "name": "",
          "type": "string"
        }
      ],
      "stateMutability": "view",
      "type": "function",
      "constant": true
    },
    {
      "inputs": [],
      "name": "totalSupply",
      "outputs": [
        {
          "internalType": "uint256",
          "name": "",
          "type": "uint256"
        }
      ],
      "stateMutability": "view",
      "type": "function",
      "constant": true
    },
    {
      "inputs": [
        {
          "internalType": "address",
          "name": "to",
          "type": "address"
        }
      ],
      "name": "balanceOf",
      "outputs": [
        {
          "internalType": "uint256",
          "name": "",
          "type": "uint256"
        }
      ],
      "stateMutability": "view",
      "type": "function",
      "constant": true
    },
    {
      "inputs": [],
      "name": "balance",
      "outputs": [
        {
          "internalType": "uint256",
          "name": "",
          "type": "uint256"
        }
      ],
      "stateMutability": "view",
      "type": "function",
      "constant": true
    },
    {
      "inputs": [
        {
          "internalType": "address",
          "name": "spender",
          "type": "address"
        },
        {
          "internalType": "uint256",
          "name": "value",
          "type": "uint256"
        }
      ],
      "name": "approve",
      "outputs": [
        {
          "internalType": "bool",
          "name": "",
          "type": "bool"
        }
      ],
      "stateMutability": "nonpayable",
      "type": "function"
    },
    {
      "inputs": [
        {
          "internalType": "address",
          "name": "from",
          "type": "address"
        },
        {
          "internalType": "address",
          "name": "to",
          "type": "address"
        },
        {
          "internalType": "uint256",
          "name": "value",
          "type": "uint256"
        }
      ],
      "name": "transferFrom",
      "outputs": [
        {
          "internalType": "bool",
          "name": "",
          "type": "bool"
        }
      ],
      "stateMutability": "payable",
      "type": "function",
      "payable": true
    },
    {
      "inputs": [
        {
          "internalType": "address",
          "name": "owner",
          "type": "address"
        },
        {
          "internalType": "address",
          "name": "spender",
          "type": "address"
        }
      ],
      "name": "allowance",
      "outputs": [
        {
          "internalType": "uint256",
          "name": "",
          "type": "uint256"
        }
      ],
      "stateMutability": "view",
      "type": "function",
      "constant": true
    },
    {
      "inputs": [
        {
          "internalType": "address payable",
          "name": "to",
          "type": "address"
        },
        {
          "internalType": "uint256",
          "name": "value",
          "type": "uint256"
        }
      ],
      "name": "transfer",
      "outputs": [
        {
          "internalType": "bool",
          "name": "",
          "type": "bool"
        }
      ],
      "stateMutability": "payable",
      "type": "function",
      "payable": true
    }
  ],
  "bytecode": "0x60806040526040518060400160405280600981526020017f44617070546f6b656e0000000000000000000000000000000000000000000000815250600190805190602001906200005192919062000173565b506040518060400160405280600481526020017f4441505000000000000000000000000000000000000000000000000000000000815250600290805190602001906200009f92919062000173565b506040518060400160405280600f81526020017f4441505020746f6b656e2076312e30000000000000000000000000000000000081525060039080519060200190620000ed92919062000173565b50348015620000fb57600080fd5b506040516200128038038062001280833981810160405281019062000121919062000263565b80600460003373ffffffffffffffffffffffffffffffffffffffff1673ffffffffffffffffffffffffffffffffffffffff168152602001908152602001600020819055508060008190555050620002fa565b8280546200018190620002c4565b90600052602060002090601f016020900481019282620001a55760008555620001f1565b82601f10620001c057805160ff1916838001178555620001f1565b82800160010185558215620001f1579182015b82811115620001f0578251825591602001919060010190620001d3565b5b50905062000200919062000204565b5090565b5b808211156200021f57600081600090555060010162000205565b5090565b600080fd5b6000819050919050565b6200023d8162000228565b81146200024957600080fd5b50565b6000815190506200025d8162000232565b92915050565b6000602082840312156200027c576200027b62000223565b5b60006200028c848285016200024c565b91505092915050565b7f4e487b7100000000000000000000000000000000000000000000000000000000600052602260045260246000fd5b60006002820490506001821680620002dd57607f821691505b60208210811415620002f457620002f362000295565b5b50919050565b610f76806200030a6000396000f3fe6080604052600436106100915760003560e01c806395d89b411161005957806395d89b4114610196578063a9059cbb146101c1578063b69ef8a8146101f1578063cf1ee49c1461021c578063dd62ed3e1461024757610091565b806306fdde0314610096578063095ea7b3146100c157806318160ddd146100fe57806323b872dd1461012957806370a0823114610159575b600080fd5b3480156100a257600080fd5b506100ab610284565b6040516100b89190610afb565b60405180910390f35b3480156100cd57600080fd5b506100e860048036038101906100e39190610bb6565b610312565b6040516100f59190610c11565b60405180910390f35b34801561010a57600080fd5b50610113610404565b6040516101209190610c3b565b60405180910390f35b610143600480360381019061013e9190610c56565b61040a565b6040516101509190610c11565b60405180910390f35b34801561016557600080fd5b50610180600480360381019061017b9190610ca9565b610690565b60405161018d9190610c3b565b60405180910390f35b3480156101a257600080fd5b506101ab6106d9565b6040516101b89190610afb565b60405180910390f35b6101db60048036038101906101d69190610d14565b610767565b6040516101e89190610c11565b60405180910390f35b3480156101fd57600080fd5b50610206610906565b6040516102139190610c3b565b60405180910390f35b34801561022857600080fd5b5061023161094d565b60405161023e9190610afb565b60405180910390f35b34801561025357600080fd5b5061026e60048036038101906102699190610d54565b6109db565b60405161027b9190610c3b565b60405180910390f35b6001805461029190610dc3565b80601f01602080910402602001604051908101604052809291908181526020018280546102bd90610dc3565b801561030a5780601f106102df5761010080835404028352916020019161030a565b820191906000526020600020905b8154815290600101906020018083116102ed57829003601f168201915b505050505081565b600081600560003373ffffffffffffffffffffffffffffffffffffffff1673ffffffffffffffffffffffffffffffffffffffff16815260200190815260200160002060008573ffffffffffffffffffffffffffffffffffffffff1673ffffffffffffffffffffffffffffffffffffffff168152602001908152602001600020819055508273ffffffffffffffffffffffffffffffffffffffff163373ffffffffffffffffffffffffffffffffffffffff167f8c5be1e5ebec7d5bd14f71427d1e84f3dd0314c0f7b2291e5b200ac8c7c3b925846040516103f29190610c3b565b60405180910390a36001905092915050565b60005481565b6000600460008573ffffffffffffffffffffffffffffffffffffffff1673ffffffffffffffffffffffffffffffffffffffff1681526020019081526020016000205482111561045857600080fd5b600560008573ffffffffffffffffffffffffffffffffffffffff1673ffffffffffffffffffffffffffffffffffffffff16815260200190815260200160002060003373ffffffffffffffffffffffffffffffffffffffff1673ffffffffffffffffffffffffffffffffffffffff168152602001908152602001600020548211156104e157600080fd5b81600460008673ffffffffffffffffffffffffffffffffffffffff1673ffffffffffffffffffffffffffffffffffffffff16815260200190815260200160002060008282546105309190610e24565b9250508190555081600460008573ffffffffffffffffffffffffffffffffffffffff1673ffffffffffffffffffffffffffffffffffffffff16815260200190815260200160002060008282546105869190610e58565b9250508190555081600560008673ffffffffffffffffffffffffffffffffffffffff1673ffffffffffffffffffffffffffffffffffffffff16815260200190815260200160002060003373ffffffffffffffffffffffffffffffffffffffff1673ffffffffffffffffffffffffffffffffffffffff16815260200190815260200160002060008282546106199190610e24565b925050819055508273ffffffffffffffffffffffffffffffffffffffff168473ffffffffffffffffffffffffffffffffffffffff167fddf252ad1be2c89b69c2b068fc378daa952ba7f163c4a11628f55a4df523b3ef8460405161067d9190610c3b565b60405180910390a3600190509392505050565b6000600460008373ffffffffffffffffffffffffffffffffffffffff1673ffffffffffffffffffffffffffffffffffffffff168152602001908152602001600020549050919050565b600280546106e690610dc3565b80601f016020809104026020016040519081016040528092919081815260200182805461071290610dc3565b801561075f5780601f106107345761010080835404028352916020019161075f565b820191906000526020600020905b81548152906001019060200180831161074257829003601f168201915b505050505081565b600081600460003373ffffffffffffffffffffffffffffffffffffffff1673ffffffffffffffffffffffffffffffffffffffff1681526020019081526020016000205410156107eb576040517f08c379a00000000000000000000000000000000000000000000000000000000081526004016107e290610f20565b60405180910390fd5b81600460003373ffffffffffffffffffffffffffffffffffffffff1673ffffffffffffffffffffffffffffffffffffffff168152602001908152602001600020600082825461083a9190610e24565b9250508190555081600460008573ffffffffffffffffffffffffffffffffffffffff1673ffffffffffffffffffffffffffffffffffffffff16815260200190815260200160002060008282546108909190610e58565b925050819055508273ffffffffffffffffffffffffffffffffffffffff163373ffffffffffffffffffffffffffffffffffffffff167fddf252ad1be2c89b69c2b068fc378daa952ba7f163c4a11628f55a4df523b3ef846040516108f49190610c3b565b60405180910390a36001905092915050565b6000600460003373ffffffffffffffffffffffffffffffffffffffff1673ffffffffffffffffffffffffffffffffffffffff16815260200190815260200160002054905090565b6003805461095a90610dc3565b80601f016020809104026020016040519081016040528092919081815260200182805461098690610dc3565b80156109d35780601f106109a8576101008083540402835291602001916109d3565b820191906000526020600020905b8154815290600101906020018083116109b657829003601f168201915b505050505081565b6000600560008473ffffffffffffffffffffffffffffffffffffffff1673ffffffffffffffffffffffffffffffffffffffff16815260200190815260200160002060008373ffffffffffffffffffffffffffffffffffffffff1673ffffffffffffffffffffffffffffffffffffffff16815260200190815260200160002054905092915050565b600081519050919050565b600082825260208201905092915050565b60005b83811015610a9c578082015181840152602081019050610a81565b83811115610aab576000848401525b50505050565b6000601f19601f8301169050919050565b6000610acd82610a62565b610ad78185610a6d565b9350610ae7818560208601610a7e565b610af081610ab1565b840191505092915050565b60006020820190508181036000830152610b158184610ac2565b905092915050565b600080fd5b600073ffffffffffffffffffffffffffffffffffffffff82169050919050565b6000610b4d82610b22565b9050919050565b610b5d81610b42565b8114610b6857600080fd5b50565b600081359050610b7a81610b54565b92915050565b6000819050919050565b610b9381610b80565b8114610b9e57600080fd5b50565b600081359050610bb081610b8a565b92915050565b60008060408385031215610bcd57610bcc610b1d565b5b6000610bdb85828601610b6b565b9250506020610bec85828601610ba1565b9150509250929050565b60008115159050919050565b610c0b81610bf6565b82525050565b6000602082019050610c266000830184610c02565b92915050565b610c3581610b80565b82525050565b6000602082019050610c506000830184610c2c565b92915050565b600080600060608486031215610c6f57610c6e610b1d565b5b6000610c7d86828701610b6b565b9350506020610c8e86828701610b6b565b9250506040610c9f86828701610ba1565b9150509250925092565b600060208284031215610cbf57610cbe610b1d565b5b6000610ccd84828501610b6b565b91505092915050565b6000610ce182610b22565b9050919050565b610cf181610cd6565b8114610cfc57600080fd5b50565b600081359050610d0e81610ce8565b92915050565b60008060408385031215610d2b57610d2a610b1d565b5b6000610d3985828601610cff565b9250506020610d4a85828601610ba1565b9150509250929050565b60008060408385031215610d6b57610d6a610b1d565b5b6000610d7985828601610b6b565b9250506020610d8a85828601610b6b565b9150509250929050565b7f4e487b7100000000000000000000000000000000000000000000000000000000600052602260045260246000fd5b60006002820490506001821680610ddb57607f821691505b60208210811415610def57610dee610d94565b5b50919050565b7f4e487b7100000000000000000000000000000000000000000000000000000000600052601160045260246000fd5b6000610e2f82610b80565b9150610e3a83610b80565b925082821015610e4d57610e4c610df5565b5b828203905092915050565b6000610e6382610b80565b9150610e6e83610b80565b9250827fffffffffffffffffffffffffffffffffffffffffffffffffffffffffffffffff03821115610ea357610ea2610df5565b5b828201905092915050565b7f6e6f7420656e6f75676874206d6f6e657920726576657274207472616e73666560008201527f7200000000000000000000000000000000000000000000000000000000000000602082015250565b6000610f0a602183610a6d565b9150610f1582610eae565b604082019050919050565b60006020820190508181036000830152610f3981610efd565b905091905056fea2646970667358221220afb176074bc3ccbe6a3fe78deb9c084eddc8022a0fe830093301bae9fb7a812164736f6c634300080b0033",
  "immutableReferences": {},
  "source": "pragma solidity ^0.8.7;\n\ncontract DappToken{\n  uint256 public totalSupply;\n  string public name = 'DappToken';\n  string public symbol = 'DAPP';\n  string public standar = 'DAPP token v1.0';\n\n  mapping (address => uint256) balances;\n  mapping (address=>mapping(address=>uint256)) allowances;\n\n  constructor(uint256 _totalSupply){\n    balances[msg.sender] = _totalSupply;\n    totalSupply = _totalSupply;\n  }\n  function balanceOf (address to) view external returns(uint256){\n   return balances[to]; \n  }\n  function balance () view external returns(uint256){\n    return balances[msg.sender];\n  }\n  event Approval(\n    address indexed owner,\n    address indexed spender,\n    uint256 value\n  );\n\n  function approve(address spender,uint256 value) external returns(bool){ //allow user transfer from account that not yours\n    allowances[msg.sender][spender] = value;\n    emit Approval(msg.sender,spender,value);\n\n    return true;   \n  }\n\n function transferFrom(address from, address to, uint256 value) payable external returns(bool) {\n\n    require(value <= balances[from]);\n    require(value <= allowances[from][msg.sender] );\n\n    balances[from] -= value;\n    balances[to] += value;\n\n    allowances[from][msg.sender] -= value;\n\n    emit Transfer(from,to,value);\n    return true;\n\n }\n function allowance(address owner,address spender) view external returns(uint256){\n   return allowances[owner][spender];\n }\n\n  //transfer\n  event Transfer(\n        address indexed from,\n        address indexed to,\n        uint256 value\n    );\n  \n  function transfer(address payable to,uint256 value) external payable returns(bool){\n    // recipient.transfer(to,value);\n    require(balances[msg.sender] >= value, 'not enought money revert transfer');\n    balances[msg.sender] -= value;\n    balances[to] += value;\n    emit Transfer(msg.sender,to,value);\n    // require(to == 0xaea44F84c6c151AF5d5366451996782F924a6622);\n    return true;\n  }\n\n}\n",
  "sourcePath": "/home/racso/Programming/solidity/sellToken/contracts/DappToken.sol",
  "compiler": {
    "name": "solc",
    "version": "0.8.11+commit.d7f03943.Emscripten.clang"
  },
  "schemaVersion": "3.4.4",
  "updatedAt": "2022-01-20T02:02:41.081Z",
  "networkType": "ethereum",
  "devdoc": {
    "kind": "dev",
    "methods": {},
    "version": 1
  },
  "userdoc": {
    "kind": "user",
    "methods": {},
    "version": 1
  }
}