{
  "contractName": "Token",
  "abi": [
    {
      "inputs": [
        {
          "internalType": "uint256",
          "name": "_totalSupply",
          "type": "uint256"
        }
      ],
      "stateMutability": "nonpayable",
      "type": "constructor"
    },
    {
      "anonymous": false,
      "inputs": [
        {
          "indexed": true,
          "internalType": "address",
          "name": "owner",
          "type": "address"
        },
        {
          "indexed": true,
          "internalType": "address",
          "name": "spender",
          "type": "address"
        },
        {
          "indexed": false,
          "internalType": "uint256",
          "name": "value",
          "type": "uint256"
        }
      ],
      "name": "Approval",
      "type": "event"
    },
    {
      "anonymous": false,
      "inputs": [
        {
          "indexed": true,
          "internalType": "address",
          "name": "from",
          "type": "address"
        },
        {
          "indexed": true,
          "internalType": "address",
          "name": "to",
          "type": "address"
        },
        {
          "indexed": false,
          "internalType": "uint256",
          "name": "value",
          "type": "uint256"
        }
      ],
      "name": "Transfer",
      "type": "event"
    },
    {
      "inputs": [],
      "name": "name",
      "outputs": [
        {
          "internalType": "string",
          "name": "",
          "type": "string"
        }
      ],
      "stateMutability": "view",
      "type": "function",
      "constant": true
    },
    {
      "inputs": [],
      "name": "standar",
      "outputs": [
        {
          "internalType": "string",
          "name": "",
          "type": "string"
        }
      ],
      "stateMutability": "view",
      "type": "function",
      "constant": true
    },
    {
      "inputs": [],
      "name": "symbol",
      "outputs": [
        {
          "internalType": "string",
          "name": "",
          "type": "string"
        }
      ],
      "stateMutability": "view",
      "type": "function",
      "constant": true
    },
    {
      "inputs": [],
      "name": "totalSupply",
      "outputs": [
        {
          "internalType": "uint256",
          "name": "",
          "type": "uint256"
        }
      ],
      "stateMutability": "view",
      "type": "function",
      "constant": true
    },
    {
      "inputs": [
        {
          "internalType": "address",
          "name": "to",
          "type": "address"
        }
      ],
      "name": "balanceOf",
      "outputs": [
        {
          "internalType": "uint256",
          "name": "",
          "type": "uint256"
        }
      ],
      "stateMutability": "view",
      "type": "function",
      "constant": true
    },
    {
      "inputs": [],
      "name": "balance",
      "outputs": [
        {
          "internalType": "uint256",
          "name": "",
          "type": "uint256"
        }
      ],
      "stateMutability": "view",
      "type": "function",
      "constant": true
    },
    {
      "inputs": [
        {
          "internalType": "address",
          "name": "spender",
          "type": "address"
        },
        {
          "internalType": "uint256",
          "name": "value",
          "type": "uint256"
        }
      ],
      "name": "approve",
      "outputs": [
        {
          "internalType": "bool",
          "name": "",
          "type": "bool"
        }
      ],
      "stateMutability": "nonpayable",
      "type": "function"
    },
    {
      "inputs": [
        {
          "internalType": "address",
          "name": "from",
          "type": "address"
        },
        {
          "internalType": "address",
          "name": "to",
          "type": "address"
        },
        {
          "internalType": "uint256",
          "name": "value",
          "type": "uint256"
        }
      ],
      "name": "transferFrom",
      "outputs": [
        {
          "internalType": "bool",
          "name": "",
          "type": "bool"
        }
      ],
      "stateMutability": "nonpayable",
      "type": "function"
    },
    {
      "inputs": [
        {
          "internalType": "address",
          "name": "owner",
          "type": "address"
        },
        {
          "internalType": "address",
          "name": "spender",
          "type": "address"
        }
      ],
      "name": "allowance",
      "outputs": [
        {
          "internalType": "uint256",
          "name": "",
          "type": "uint256"
        }
      ],
      "stateMutability": "view",
      "type": "function",
      "constant": true
    },
    {
      "inputs": [
        {
          "internalType": "address",
          "name": "to",
          "type": "address"
        },
        {
          "internalType": "uint256",
          "name": "value",
          "type": "uint256"
        }
      ],
      "name": "transfer",
      "outputs": [
        {
          "internalType": "bool",
          "name": "",
          "type": "bool"
        }
      ],
      "stateMutability": "nonpayable",
      "type": "function"
    }
  ],
  "bytecode": "0x60806040526040518060400160405280600881526020017f524143546f6b656e000000000000000000000000000000000000000000000000815250600190805190602001906200005192919062000173565b506040518060400160405280600381526020017f5241430000000000000000000000000000000000000000000000000000000000815250600290805190602001906200009f92919062000173565b506040518060400160405280600e81526020017f52414320746f6b656e2076312e3000000000000000000000000000000000000081525060039080519060200190620000ed92919062000173565b50348015620000fb57600080fd5b50604051620011a7380380620011a7833981810160405281019062000121919062000263565b80600460003373ffffffffffffffffffffffffffffffffffffffff1673ffffffffffffffffffffffffffffffffffffffff168152602001908152602001600020819055508060008190555050620002fa565b8280546200018190620002c4565b90600052602060002090601f016020900481019282620001a55760008555620001f1565b82601f10620001c057805160ff1916838001178555620001f1565b82800160010185558215620001f1579182015b82811115620001f0578251825591602001919060010190620001d3565b5b50905062000200919062000204565b5090565b5b808211156200021f57600081600090555060010162000205565b5090565b600080fd5b6000819050919050565b6200023d8162000228565b81146200024957600080fd5b50565b6000815190506200025d8162000232565b92915050565b6000602082840312156200027c576200027b62000223565b5b60006200028c848285016200024c565b91505092915050565b7f4e487b7100000000000000000000000000000000000000000000000000000000600052602260045260246000fd5b60006002820490506001821680620002dd57607f821691505b60208210811415620002f457620002f362000295565b5b50919050565b610e9d806200030a6000396000f3fe608060405234801561001057600080fd5b506004361061009e5760003560e01c806395d89b411161006657806395d89b411461016f578063a9059cbb1461018d578063b69ef8a8146101bd578063cf1ee49c146101db578063dd62ed3e146101f95761009e565b806306fdde03146100a3578063095ea7b3146100c157806318160ddd146100f157806323b872dd1461010f57806370a082311461013f575b600080fd5b6100ab610229565b6040516100b89190610aa0565b60405180910390f35b6100db60048036038101906100d69190610b5b565b6102b7565b6040516100e89190610bb6565b60405180910390f35b6100f96103a9565b6040516101069190610be0565b60405180910390f35b61012960048036038101906101249190610bfb565b6103af565b6040516101369190610bb6565b60405180910390f35b61015960048036038101906101549190610c4e565b610635565b6040516101669190610be0565b60405180910390f35b61017761067e565b6040516101849190610aa0565b60405180910390f35b6101a760048036038101906101a29190610b5b565b61070c565b6040516101b49190610bb6565b60405180910390f35b6101c56108ab565b6040516101d29190610be0565b60405180910390f35b6101e36108f2565b6040516101f09190610aa0565b60405180910390f35b610213600480360381019061020e9190610c7b565b610980565b6040516102209190610be0565b60405180910390f35b6001805461023690610cea565b80601f016020809104026020016040519081016040528092919081815260200182805461026290610cea565b80156102af5780601f10610284576101008083540402835291602001916102af565b820191906000526020600020905b81548152906001019060200180831161029257829003601f168201915b505050505081565b600081600560003373ffffffffffffffffffffffffffffffffffffffff1673ffffffffffffffffffffffffffffffffffffffff16815260200190815260200160002060008573ffffffffffffffffffffffffffffffffffffffff1673ffffffffffffffffffffffffffffffffffffffff168152602001908152602001600020819055508273ffffffffffffffffffffffffffffffffffffffff163373ffffffffffffffffffffffffffffffffffffffff167f8c5be1e5ebec7d5bd14f71427d1e84f3dd0314c0f7b2291e5b200ac8c7c3b925846040516103979190610be0565b60405180910390a36001905092915050565b60005481565b6000600460008573ffffffffffffffffffffffffffffffffffffffff1673ffffffffffffffffffffffffffffffffffffffff168152602001908152602001600020548211156103fd57600080fd5b600560008573ffffffffffffffffffffffffffffffffffffffff1673ffffffffffffffffffffffffffffffffffffffff16815260200190815260200160002060003373ffffffffffffffffffffffffffffffffffffffff1673ffffffffffffffffffffffffffffffffffffffff1681526020019081526020016000205482111561048657600080fd5b81600460008673ffffffffffffffffffffffffffffffffffffffff1673ffffffffffffffffffffffffffffffffffffffff16815260200190815260200160002060008282546104d59190610d4b565b9250508190555081600460008573ffffffffffffffffffffffffffffffffffffffff1673ffffffffffffffffffffffffffffffffffffffff168152602001908152602001600020600082825461052b9190610d7f565b9250508190555081600560008673ffffffffffffffffffffffffffffffffffffffff1673ffffffffffffffffffffffffffffffffffffffff16815260200190815260200160002060003373ffffffffffffffffffffffffffffffffffffffff1673ffffffffffffffffffffffffffffffffffffffff16815260200190815260200160002060008282546105be9190610d4b565b925050819055508273ffffffffffffffffffffffffffffffffffffffff168473ffffffffffffffffffffffffffffffffffffffff167fddf252ad1be2c89b69c2b068fc378daa952ba7f163c4a11628f55a4df523b3ef846040516106229190610be0565b60405180910390a3600190509392505050565b6000600460008373ffffffffffffffffffffffffffffffffffffffff1673ffffffffffffffffffffffffffffffffffffffff168152602001908152602001600020549050919050565b6002805461068b90610cea565b80601f01602080910402602001604051908101604052809291908181526020018280546106b790610cea565b80156107045780601f106106d957610100808354040283529160200191610704565b820191906000526020600020905b8154815290600101906020018083116106e757829003601f168201915b505050505081565b600081600460003373ffffffffffffffffffffffffffffffffffffffff1673ffffffffffffffffffffffffffffffffffffffff168152602001908152602001600020541015610790576040517f08c379a000000000000000000000000000000000000000000000000000000000815260040161078790610e47565b60405180910390fd5b81600460003373ffffffffffffffffffffffffffffffffffffffff1673ffffffffffffffffffffffffffffffffffffffff16815260200190815260200160002060008282546107df9190610d4b565b9250508190555081600460008573ffffffffffffffffffffffffffffffffffffffff1673ffffffffffffffffffffffffffffffffffffffff16815260200190815260200160002060008282546108359190610d7f565b925050819055508273ffffffffffffffffffffffffffffffffffffffff163373ffffffffffffffffffffffffffffffffffffffff167fddf252ad1be2c89b69c2b068fc378daa952ba7f163c4a11628f55a4df523b3ef846040516108999190610be0565b60405180910390a36001905092915050565b6000600460003373ffffffffffffffffffffffffffffffffffffffff1673ffffffffffffffffffffffffffffffffffffffff16815260200190815260200160002054905090565b600380546108ff90610cea565b80601f016020809104026020016040519081016040528092919081815260200182805461092b90610cea565b80156109785780601f1061094d57610100808354040283529160200191610978565b820191906000526020600020905b81548152906001019060200180831161095b57829003601f168201915b505050505081565b6000600560008473ffffffffffffffffffffffffffffffffffffffff1673ffffffffffffffffffffffffffffffffffffffff16815260200190815260200160002060008373ffffffffffffffffffffffffffffffffffffffff1673ffffffffffffffffffffffffffffffffffffffff16815260200190815260200160002054905092915050565b600081519050919050565b600082825260208201905092915050565b60005b83811015610a41578082015181840152602081019050610a26565b83811115610a50576000848401525b50505050565b6000601f19601f8301169050919050565b6000610a7282610a07565b610a7c8185610a12565b9350610a8c818560208601610a23565b610a9581610a56565b840191505092915050565b60006020820190508181036000830152610aba8184610a67565b905092915050565b600080fd5b600073ffffffffffffffffffffffffffffffffffffffff82169050919050565b6000610af282610ac7565b9050919050565b610b0281610ae7565b8114610b0d57600080fd5b50565b600081359050610b1f81610af9565b92915050565b6000819050919050565b610b3881610b25565b8114610b4357600080fd5b50565b600081359050610b5581610b2f565b92915050565b60008060408385031215610b7257610b71610ac2565b5b6000610b8085828601610b10565b9250506020610b9185828601610b46565b9150509250929050565b60008115159050919050565b610bb081610b9b565b82525050565b6000602082019050610bcb6000830184610ba7565b92915050565b610bda81610b25565b82525050565b6000602082019050610bf56000830184610bd1565b92915050565b600080600060608486031215610c1457610c13610ac2565b5b6000610c2286828701610b10565b9350506020610c3386828701610b10565b9250506040610c4486828701610b46565b9150509250925092565b600060208284031215610c6457610c63610ac2565b5b6000610c7284828501610b10565b91505092915050565b60008060408385031215610c9257610c91610ac2565b5b6000610ca085828601610b10565b9250506020610cb185828601610b10565b9150509250929050565b7f4e487b7100000000000000000000000000000000000000000000000000000000600052602260045260246000fd5b60006002820490506001821680610d0257607f821691505b60208210811415610d1657610d15610cbb565b5b50919050565b7f4e487b7100000000000000000000000000000000000000000000000000000000600052601160045260246000fd5b6000610d5682610b25565b9150610d6183610b25565b925082821015610d7457610d73610d1c565b5b828203905092915050565b6000610d8a82610b25565b9150610d9583610b25565b9250827fffffffffffffffffffffffffffffffffffffffffffffffffffffffffffffffff03821115610dca57610dc9610d1c565b5b828201905092915050565b7f6e6f7420656e6f75676874206d6f6e657920726576657274207472616e73666560008201527f7200000000000000000000000000000000000000000000000000000000000000602082015250565b6000610e31602183610a12565b9150610e3c82610dd5565b604082019050919050565b60006020820190508181036000830152610e6081610e24565b905091905056fea2646970667358221220cf1375c99743ac1a11012477cfbb51d2cfa4a82cdd75cb30af81c4cefdd6026464736f6c634300080b0033",
  "immutableReferences": {},
  "source": "pragma solidity ^0.8.0;\n\ncontract Token{\n  uint256 public totalSupply;\n  string public name = 'RACToken';\n  string public symbol = 'RAC';\n  string public standar = 'RAC token v1.0';\n\n  mapping (address => uint256) balances;\n  mapping (address=>mapping(address=>uint256)) allowances;\n\n  constructor(uint256 _totalSupply){\n    balances[msg.sender] = _totalSupply;\n    totalSupply = _totalSupply;\n  }\n  function balanceOf (address to) view external returns(uint256){\n   return balances[to]; \n  }\n  function balance () view external returns(uint256){\n    return balances[msg.sender];\n  }\n  event Approval(\n    address indexed owner,\n    address indexed spender,\n    uint256 value\n  );\n\n  function approve(address spender,uint256 value) external returns(bool){ //allow user transfer from account that not yours\n    allowances[msg.sender][spender] = value;\n    emit Approval(msg.sender,spender,value);\n\n    return true;   \n  }\n\n function transferFrom(address from, address to, uint256 value)  external returns(bool) {\n\n    require(value <= balances[from]);\n    require(value <= allowances[from][msg.sender] );\n\n    balances[from] -= value;\n    balances[to] += value;\n\n    allowances[from][msg.sender] -= value;\n\n    emit Transfer(from,to,value);\n    return true;\n\n }\n function allowance(address owner,address spender) view external returns(uint256){\n   return allowances[owner][spender];\n }\n\n  //transfer\n  event Transfer(\n        address indexed from,\n        address indexed to,\n        uint256 value\n    );\n  \n  function transfer(address  to,uint256 value) external  returns(bool){\n    // recipient.transfer(to,value);\n    require(balances[msg.sender] >= value, 'not enought money revert transfer');\n    balances[msg.sender] -= value;\n    balances[to] += value;\n    emit Transfer(msg.sender,to,value);\n    // require(to == 0xaea44F84c6c151AF5d5366451996782F924a6622);\n    return true;\n  }\n\n}\n",
  "sourcePath": "/home/racso/Programming/solidity/sellToken/contracts/Token.sol",
  "compiler": {
    "name": "solc",
    "version": "0.8.11+commit.d7f03943.Emscripten.clang"
  },
  "schemaVersion": "3.4.4",
  "updatedAt": "2022-01-22T17:56:19.466Z",
  "networkType": "ethereum",
  "devdoc": {
    "kind": "dev",
    "methods": {},
    "version": 1
  },
  "userdoc": {
    "kind": "user",
    "methods": {},
    "version": 1
  }
}